:10000000C2B0758921758DFD759850D28E12003859
:100010001200971201911200BA120038120097C212
:10002000B01201911200BA11E311E311F7319712E6
:1000300000A511E331B680E1D282C280C28174385A
:100040001200CF12006874381200CF120071743899
:100050001200CF740C1200CF74011200CF7406127C
:1000600000CF74801200CF227E907FC8DFFEDEFAC0
:10007000227F00DFFE22C28002007DD280C281C2C8
:100080008200D28200007590FFD281C280C28200BD
:1000900000D282120071229001EB1200D522900250
:1000A0000A1200D5229002191200D52290022812BD
:1000B00000D5229002431200D5229001FA1200D5F9
:1000C000229002371200D5229002521200D522F55A
:1000D0009012007622740093B4990122F590117B5E
:1000E000A380F27B2E758C00758A00D28C308DFD3A
:1000F000C28CC28DDBEF2212011712019712009EF3
:10010000120191780579A012011DF7F59012007B7C
:100110001201A209D8F12274011200CF2275A0FFAA
:10012000C2A020A40374312220A50374322220A689
:100130000374332220A703744122D2A0C2A120A4B9
:070140000374342220A50323
:1001470074352220A60374362220A703744222D2D4
:10015700A1C2A220A40374372220A5037438222049
:10016700A60374392220A703744322D2A2C2A32074
:10017700A403742A2220A50374302220A603742323
:100187002220A70374442202011D74C01200CF224B
:1001970074061200CF74801200CF227BFA758CFC94
:1001A700758A18D28C308DFDC28CC28DDBEF227818
:1001B7000579A0900260E49367701809A3D8F73116
:1001C7001731971200AC319111E3D2A01200C1117F
:1001D700E38010311731971200B311E33191120008
:1001E700C811E32250415353574F524420424153C1
:1001F70045449953454355524954592053595354EB
:10020700454D99494E505554203520444947495446
:100217005399434845434B2050415353574F5244FA
:1002270099414343455353204752414E54454499BE
:10023700444F4F52204F50454E45449957524F4EC9
:10024700472050415353574F5244994143434553D5
:0F025700532044454E49454499313233343500E4
:00000001FF
